{
  "_format": "hh-sol-artifact-1",
  "contractName": "IWasThereChronicles",
  "sourceName": "contracts/IWasThereChronicles.sol",
  "abi": [
    {
      "inputs": [
        {
          "internalType": "address",
          "name": "_usdcAddress",
          "type": "address"
        },
        {
          "internalType": "address",
          "name": "initialOwner",
          "type": "address"
        }
      ],
      "stateMutability": "nonpayable",
      "type": "constructor"
    },
    {
      "anonymous": false,
      "inputs": [
        {
          "indexed": true,
          "internalType": "address",
          "name": "owner",
          "type": "address"
        },
        {
          "indexed": true,
          "internalType": "address",
          "name": "approved",
          "type": "address"
        },
        {
          "indexed": true,
          "internalType": "uint256",
          "name": "tokenId",
          "type": "uint256"
        }
      ],
      "name": "Approval",
      "type": "event"
    },
    {
      "anonymous": false,
      "inputs": [
        {
          "indexed": true,
          "internalType": "address",
          "name": "owner",
          "type": "address"
        },
        {
          "indexed": true,
          "internalType": "address",
          "name": "operator",
          "type": "address"
        },
        {
          "indexed": false,
          "internalType": "bool",
          "name": "approved",
          "type": "bool"
        }
      ],
      "name": "ApprovalForAll",
      "type": "event"
    },
    {
      "anonymous": false,
      "inputs": [
        {
          "indexed": false,
          "internalType": "uint256",
          "name": "_fromTokenId",
          "type": "uint256"
        },
        {
          "indexed": false,
          "internalType": "uint256",
          "name": "_toTokenId",
          "type": "uint256"
        }
      ],
      "name": "BatchMetadataUpdate",
      "type": "event"
    },
    {
      "anonymous": false,
      "inputs": [
        {
          "indexed": false,
          "internalType": "uint256",
          "name": "_tokenId",
          "type": "uint256"
        }
      ],
      "name": "MetadataUpdate",
      "type": "event"
    },
    {
      "anonymous": false,
      "inputs": [
        {
          "indexed": true,
          "internalType": "address",
          "name": "previousOwner",
          "type": "address"
        },
        {
          "indexed": true,
          "internalType": "address",
          "name": "newOwner",
          "type": "address"
        }
      ],
      "name": "OwnershipTransferred",
      "type": "event"
    },
    {
      "anonymous": false,
      "inputs": [
        {
          "indexed": true,
          "internalType": "address",
          "name": "from",
          "type": "address"
        },
        {
          "indexed": true,
          "internalType": "address",
          "name": "to",
          "type": "address"
        },
        {
          "indexed": true,
          "internalType": "uint256",
          "name": "tokenId",
          "type": "uint256"
        }
      ],
      "name": "Transfer",
      "type": "event"
    },
    {
      "inputs": [],
      "name": "CREDIT_PACKAGE_PRICE",
      "outputs": [
        {
          "internalType": "uint256",
          "name": "",
          "type": "uint256"
        }
      ],
      "stateMutability": "view",
      "type": "function"
    },
    {
      "inputs": [],
      "name": "FREE_PHOTOS_AMOUNT",
      "outputs": [
        {
          "internalType": "uint256",
          "name": "",
          "type": "uint256"
        }
      ],
      "stateMutability": "view",
      "type": "function"
    },
    {
      "inputs": [],
      "name": "FREE_VIDEOS_AMOUNT",
      "outputs": [
        {
          "internalType": "uint256",
          "name": "",
          "type": "uint256"
        }
      ],
      "stateMutability": "view",
      "type": "function"
    },
    {
      "inputs": [],
      "name": "SUBSCRIPTION_DURATION",
      "outputs": [
        {
          "internalType": "uint256",
          "name": "",
          "type": "uint256"
        }
      ],
      "stateMutability": "view",
      "type": "function"
    },
    {
      "inputs": [
        {
          "internalType": "address",
          "name": "to",
          "type": "address"
        },
        {
          "internalType": "uint256",
          "name": "tokenId",
          "type": "uint256"
        }
      ],
      "name": "approve",
      "outputs": [],
      "stateMutability": "nonpayable",
      "type": "function"
    },
    {
      "inputs": [
        {
          "internalType": "address",
          "name": "owner",
          "type": "address"
        }
      ],
      "name": "balanceOf",
      "outputs": [
        {
          "internalType": "uint256",
          "name": "",
          "type": "uint256"
        }
      ],
      "stateMutability": "view",
      "type": "function"
    },
    {
      "inputs": [],
      "name": "claimFreePackage",
      "outputs": [],
      "stateMutability": "nonpayable",
      "type": "function"
    },
    {
      "inputs": [
        {
          "internalType": "uint256",
          "name": "tokenId",
          "type": "uint256"
        }
      ],
      "name": "getApproved",
      "outputs": [
        {
          "internalType": "address",
          "name": "",
          "type": "address"
        }
      ],
      "stateMutability": "view",
      "type": "function"
    },
    {
      "inputs": [
        {
          "internalType": "address",
          "name": "",
          "type": "address"
        }
      ],
      "name": "hasClaimedFreePackage",
      "outputs": [
        {
          "internalType": "bool",
          "name": "",
          "type": "bool"
        }
      ],
      "stateMutability": "view",
      "type": "function"
    },
    {
      "inputs": [
        {
          "internalType": "address",
          "name": "owner",
          "type": "address"
        },
        {
          "internalType": "address",
          "name": "operator",
          "type": "address"
        }
      ],
      "name": "isApprovedForAll",
      "outputs": [
        {
          "internalType": "bool",
          "name": "",
          "type": "bool"
        }
      ],
      "stateMutability": "view",
      "type": "function"
    },
    {
      "inputs": [
        {
          "internalType": "string",
          "name": "_tokenURI",
          "type": "string"
        }
      ],
      "name": "mintPhoto",
      "outputs": [],
      "stateMutability": "nonpayable",
      "type": "function"
    },
    {
      "inputs": [
        {
          "internalType": "string",
          "name": "_tokenURI",
          "type": "string"
        }
      ],
      "name": "mintVideo",
      "outputs": [],
      "stateMutability": "nonpayable",
      "type": "function"
    },
    {
      "inputs": [],
      "name": "name",
      "outputs": [
        {
          "internalType": "string",
          "name": "",
          "type": "string"
        }
      ],
      "stateMutability": "view",
      "type": "function"
    },
    {
      "inputs": [],
      "name": "owner",
      "outputs": [
        {
          "internalType": "address",
          "name": "",
          "type": "address"
        }
      ],
      "stateMutability": "view",
      "type": "function"
    },
    {
      "inputs": [
        {
          "internalType": "uint256",
          "name": "tokenId",
          "type": "uint256"
        }
      ],
      "name": "ownerOf",
      "outputs": [
        {
          "internalType": "address",
          "name": "",
          "type": "address"
        }
      ],
      "stateMutability": "view",
      "type": "function"
    },
    {
      "inputs": [
        {
          "internalType": "address",
          "name": "",
          "type": "address"
        }
      ],
      "name": "photoCredits",
      "outputs": [
        {
          "internalType": "uint256",
          "name": "",
          "type": "uint256"
        }
      ],
      "stateMutability": "view",
      "type": "function"
    },
    {
      "inputs": [],
      "name": "purchaseCreditPackage",
      "outputs": [],
      "stateMutability": "nonpayable",
      "type": "function"
    },
    {
      "inputs": [],
      "name": "renounceOwnership",
      "outputs": [],
      "stateMutability": "nonpayable",
      "type": "function"
    },
    {
      "inputs": [
        {
          "internalType": "address",
          "name": "from",
          "type": "address"
        },
        {
          "internalType": "address",
          "name": "to",
          "type": "address"
        },
        {
          "internalType": "uint256",
          "name": "tokenId",
          "type": "uint256"
        }
      ],
      "name": "safeTransferFrom",
      "outputs": [],
      "stateMutability": "nonpayable",
      "type": "function"
    },
    {
      "inputs": [
        {
          "internalType": "address",
          "name": "from",
          "type": "address"
        },
        {
          "internalType": "address",
          "name": "to",
          "type": "address"
        },
        {
          "internalType": "uint256",
          "name": "tokenId",
          "type": "uint256"
        },
        {
          "internalType": "bytes",
          "name": "data",
          "type": "bytes"
        }
      ],
      "name": "safeTransferFrom",
      "outputs": [],
      "stateMutability": "nonpayable",
      "type": "function"
    },
    {
      "inputs": [
        {
          "internalType": "address",
          "name": "operator",
          "type": "address"
        },
        {
          "internalType": "bool",
          "name": "approved",
          "type": "bool"
        }
      ],
      "name": "setApprovalForAll",
      "outputs": [],
      "stateMutability": "nonpayable",
      "type": "function"
    },
    {
      "inputs": [
        {
          "internalType": "address",
          "name": "",
          "type": "address"
        }
      ],
      "name": "subscriptionExpiryTimestamp",
      "outputs": [
        {
          "internalType": "uint256",
          "name": "",
          "type": "uint256"
        }
      ],
      "stateMutability": "view",
      "type": "function"
    },
    {
      "inputs": [
        {
          "internalType": "bytes4",
          "name": "interfaceId",
          "type": "bytes4"
        }
      ],
      "name": "supportsInterface",
      "outputs": [
        {
          "internalType": "bool",
          "name": "",
          "type": "bool"
        }
      ],
      "stateMutability": "view",
      "type": "function"
    },
    {
      "inputs": [],
      "name": "symbol",
      "outputs": [
        {
          "internalType": "string",
          "name": "",
          "type": "string"
        }
      ],
      "stateMutability": "view",
      "type": "function"
    },
    {
      "inputs": [
        {
          "internalType": "uint256",
          "name": "tokenId",
          "type": "uint256"
        }
      ],
      "name": "tokenURI",
      "outputs": [
        {
          "internalType": "string",
          "name": "",
          "type": "string"
        }
      ],
      "stateMutability": "view",
      "type": "function"
    },
    {
      "inputs": [
        {
          "internalType": "address",
          "name": "from",
          "type": "address"
        },
        {
          "internalType": "address",
          "name": "to",
          "type": "address"
        },
        {
          "internalType": "uint256",
          "name": "tokenId",
          "type": "uint256"
        }
      ],
      "name": "transferFrom",
      "outputs": [],
      "stateMutability": "nonpayable",
      "type": "function"
    },
    {
      "inputs": [
        {
          "internalType": "address",
          "name": "newOwner",
          "type": "address"
        }
      ],
      "name": "transferOwnership",
      "outputs": [],
      "stateMutability": "nonpayable",
      "type": "function"
    },
    {
      "inputs": [],
      "name": "usdcToken",
      "outputs": [
        {
          "internalType": "contract IERC20",
          "name": "",
          "type": "address"
        }
      ],
      "stateMutability": "view",
      "type": "function"
    },
    {
      "inputs": [
        {
          "internalType": "address",
          "name": "",
          "type": "address"
        }
      ],
      "name": "videoCredits",
      "outputs": [
        {
          "internalType": "uint256",
          "name": "",
          "type": "uint256"
        }
      ],
      "stateMutability": "view",
      "type": "function"
    },
    {
      "inputs": [],
      "name": "withdrawUSDC",
      "outputs": [],
      "stateMutability": "nonpayable",
      "type": "function"
    }
  ],
  "bytecode": "0x60a06040523480156200001157600080fd5b506040516200223a3803806200223a833981016040819052620000349162000156565b6040518060400160405280601581526020017f4920576173205468657265204368726f6e69636c650000000000000000000000815250604051806040016040528060038152602001621255d560ea1b815250816000908162000097919062000233565b506001620000a6828262000233565b505050620000c3620000bd620000e360201b60201c565b620000e7565b6001600160a01b038216608052620000db81620000e7565b5050620002ff565b3390565b600780546001600160a01b038381166001600160a01b0319831681179093556040519116919082907f8be0079c531659141344cd1fd0a4f28419497f9722a3daafe3b4186f6b6457e090600090a35050565b80516001600160a01b03811681146200015157600080fd5b919050565b600080604083850312156200016a57600080fd5b620001758362000139565b9150620001856020840162000139565b90509250929050565b634e487b7160e01b600052604160045260246000fd5b600181811c90821680620001b957607f821691505b602082108103620001da57634e487b7160e01b600052602260045260246000fd5b50919050565b601f8211156200022e57600081815260208120601f850160051c81016020861015620002095750805b601f850160051c820191505b818110156200022a5782815560010162000215565b5050505b505050565b81516001600160401b038111156200024f576200024f6200018e565b6200026781620002608454620001a4565b84620001e0565b602080601f8311600181146200029f5760008415620002865750858301515b600019600386901b1c1916600185901b1785556200022a565b600085815260208120601f198616915b82811015620002d057888601518255948401946001909101908401620002af565b5085821015620002ef5787850151600019600388901b60f8161c191681555b5050505050600190811b01905550565b608051611f0a62000330600039600081816102610152818161064d01528181610af70152610bbe0152611f0a6000f3fe608060405234801561001057600080fd5b50600436106101da5760003560e01c80638da5cb5b11610104578063c87b56dd116100a2578063f2fde38b11610071578063f2fde38b146103fb578063f616987a1461040e578063f66bf9ff14610418578063f6847c821461043857600080fd5b8063c87b56dd146103ad578063d5189214146103c0578063d8fc063d146103e0578063e985e9c5146103e857600080fd5b8063a0b70f3c116100de578063a0b70f3c1461036c578063a22cb46514610374578063b29accf614610387578063b88d4fde1461039a57600080fd5b80638da5cb5b146103305780638e94a4591461034157806395d89b411461036457600080fd5b80631f7e8ae61161017c5780636352211e1161014b5780636352211e146102fa57806370a082311461030d578063715018a6146103205780637960bf711461032857600080fd5b80631f7e8ae6146102b957806323b872dd146102c157806342842e0e146102d45780635f1c0ebb146102e757600080fd5b8063095ea7b3116101b8578063095ea7b31461024757806311eac8551461025c5780631272d3fb1461028357806315c108db1461028b57600080fd5b806301ffc9a7146101df57806306fdde0314610207578063081812fc1461021c575b600080fd5b6101f26101ed366004611897565b610442565b60405190151581526020015b60405180910390f35b61020f610453565b6040516101fe9190611904565b61022f61022a366004611917565b6104e5565b6040516001600160a01b0390911681526020016101fe565b61025a61025536600461194c565b61050c565b005b61022f7f000000000000000000000000000000000000000000000000000000000000000081565b61025a610626565b6102ab610299366004611976565b60096020526000908152604090205481565b6040519081526020016101fe565b6102ab601e81565b61025a6102cf366004611991565b61075e565b61025a6102e2366004611991565b61078f565b61025a6102f53660046119cd565b6107aa565b61022f610308366004611917565b610869565b6102ab61031b366004611976565b6108c9565b61025a61094f565b6102ab600381565b6007546001600160a01b031661022f565b6101f261034f366004611976565b600b6020526000908152604090205460ff1681565b61020f610963565b61025a610972565b61025a610382366004611a4d565b610a12565b61025a6103953660046119cd565b610a1d565b61025a6103a8366004611a9a565b610a94565b61020f6103bb366004611917565b610acc565b6102ab6103ce366004611976565b600a6020526000908152604090205481565b61025a610ad7565b6101f26103f6366004611b76565b610c6e565b61025a610409366004611976565b610c9c565b6102ab621e848081565b6102ab610426366004611976565b600c6020526000908152604090205481565b6102ab62278d0081565b600061044d82610d15565b92915050565b60606000805461046290611ba9565b80601f016020809104026020016040519081016040528092919081815260200182805461048e90611ba9565b80156104db5780601f106104b0576101008083540402835291602001916104db565b820191906000526020600020905b8154815290600101906020018083116104be57829003601f168201915b5050505050905090565b60006104f082610d3a565b506000908152600460205260409020546001600160a01b031690565b600061051782610869565b9050806001600160a01b0316836001600160a01b0316036105895760405162461bcd60e51b815260206004820152602160248201527f4552433732313a20617070726f76616c20746f2063757272656e74206f776e656044820152603960f91b60648201526084015b60405180910390fd5b336001600160a01b03821614806105a557506105a58133610c6e565b6106175760405162461bcd60e51b815260206004820152603d60248201527f4552433732313a20617070726f76652063616c6c6572206973206e6f7420746f60448201527f6b656e206f776e6572206f7220617070726f76656420666f7220616c6c0000006064820152608401610580565b6106218383610d99565b505050565b6040516323b872dd60e01b8152336004820152306024820152621e848060448201526000907f00000000000000000000000000000000000000000000000000000000000000006001600160a01b0316906323b872dd906064016020604051808303816000875af115801561069e573d6000803e3d6000fd5b505050506040513d601f19601f820116820180604052508101906106c29190611be3565b9050806107115760405162461bcd60e51b815260206004820152601a60248201527f4957543a2055534443207472616e73666572206661696c65642e0000000000006044820152606401610580565b3360009081526009602052604081208054601e9290610731908490611c16565b9091555050336000908152600a60205260408120805460039290610756908490611c16565b909155505050565b6107683382610e07565b6107845760405162461bcd60e51b815260040161058090611c29565b610621838383610e66565b61062183838360405180602001604052806000815250610a94565b336000908152600960205260409020546108065760405162461bcd60e51b815260206004820181905260248201527f4957543a204e6f2070686f746f20637265646974732072656d61696e696e672e6044820152606401610580565b33600090815260096020526040812080549161082183611c76565b919050555061086582828080601f016020809104026020016040519081016040528093929190818152602001838380828437600092019190915250610fca92505050565b5050565b6000818152600260205260408120546001600160a01b03168061044d5760405162461bcd60e51b8152602060048201526018602482015277115490cdcc8c4e881a5b9d985b1a59081d1bdad95b88125160421b6044820152606401610580565b60006001600160a01b0382166109335760405162461bcd60e51b815260206004820152602960248201527f4552433732313a2061646472657373207a65726f206973206e6f7420612076616044820152683634b21037bbb732b960b91b6064820152608401610580565b506001600160a01b031660009081526003602052604090205490565b610957610ff9565b6109616000611053565b565b60606001805461046290611ba9565b336000908152600b602052604090205460ff16156109dd5760405162461bcd60e51b815260206004820152602260248201527f4957543a2046726565207061636b61676520616c726561647920636c61696d65604482015261321760f11b6064820152608401610580565b336000908152600b60209081526040808320805460ff1916600117905560098252808320601e9055600a909152902060039055565b6108653383836110a5565b336000908152600a6020526040902054610a795760405162461bcd60e51b815260206004820181905260248201527f4957543a204e6f20766964656f20637265646974732072656d61696e696e672e6044820152606401610580565b336000908152600a6020526040812080549161082183611c76565b610a9e3383610e07565b610aba5760405162461bcd60e51b815260040161058090611c29565b610ac684848484611173565b50505050565b606061044d826111a6565b610adf610ff9565b6040516370a0823160e01b81523060048201526000907f00000000000000000000000000000000000000000000000000000000000000006001600160a01b0316906370a0823190602401602060405180830381865afa158015610b46573d6000803e3d6000fd5b505050506040513d601f19601f82011682018060405250810190610b6a9190611c8d565b905060008111610bbc5760405162461bcd60e51b815260206004820152601a60248201527f4957543a204e6f2066756e647320746f2077697468647261772e0000000000006044820152606401610580565b7f00000000000000000000000000000000000000000000000000000000000000006001600160a01b031663a9059cbb610bfd6007546001600160a01b031690565b6040516001600160e01b031960e084901b1681526001600160a01b039091166004820152602481018490526044016020604051808303816000875af1158015610c4a573d6000803e3d6000fd5b505050506040513d601f19601f820116820180604052508101906108659190611be3565b6001600160a01b03918216600090815260056020908152604080832093909416825291909152205460ff1690565b610ca4610ff9565b6001600160a01b038116610d095760405162461bcd60e51b815260206004820152602660248201527f4f776e61626c653a206e6577206f776e657220697320746865207a65726f206160448201526564647265737360d01b6064820152608401610580565b610d1281611053565b50565b60006001600160e01b03198216632483248360e11b148061044d575061044d826112ae565b6000818152600260205260409020546001600160a01b0316610d125760405162461bcd60e51b8152602060048201526018602482015277115490cdcc8c4e881a5b9d985b1a59081d1bdad95b88125160421b6044820152606401610580565b600081815260046020526040902080546001600160a01b0319166001600160a01b0384169081179091558190610dce82610869565b6001600160a01b03167f8c5be1e5ebec7d5bd14f71427d1e84f3dd0314c0f7b2291e5b200ac8c7c3b92560405160405180910390a45050565b600080610e1383610869565b9050806001600160a01b0316846001600160a01b03161480610e3a5750610e3a8185610c6e565b80610e5e5750836001600160a01b0316610e53846104e5565b6001600160a01b0316145b949350505050565b826001600160a01b0316610e7982610869565b6001600160a01b031614610e9f5760405162461bcd60e51b815260040161058090611ca6565b6001600160a01b038216610f015760405162461bcd60e51b8152602060048201526024808201527f4552433732313a207472616e7366657220746f20746865207a65726f206164646044820152637265737360e01b6064820152608401610580565b826001600160a01b0316610f1482610869565b6001600160a01b031614610f3a5760405162461bcd60e51b815260040161058090611ca6565b600081815260046020908152604080832080546001600160a01b03199081169091556001600160a01b0387811680865260038552838620805460001901905590871680865283862080546001019055868652600290945282852080549092168417909155905184937fddf252ad1be2c89b69c2b068fc378daa952ba7f163c4a11628f55a4df523b3ef91a4505050565b610fd8600880546001019055565b6000610fe360085490565b9050610fef33826112fe565b6108658183611318565b6007546001600160a01b031633146109615760405162461bcd60e51b815260206004820181905260248201527f4f776e61626c653a2063616c6c6572206973206e6f7420746865206f776e65726044820152606401610580565b600780546001600160a01b038381166001600160a01b0319831681179093556040519116919082907f8be0079c531659141344cd1fd0a4f28419497f9722a3daafe3b4186f6b6457e090600090a35050565b816001600160a01b0316836001600160a01b0316036111065760405162461bcd60e51b815260206004820152601960248201527f4552433732313a20617070726f766520746f2063616c6c6572000000000000006044820152606401610580565b6001600160a01b03838116600081815260056020908152604080832094871680845294825291829020805460ff191686151590811790915591519182527f17307eab39ab6107e8899845ad3d59bd9653f200f220920489ca2b5937696c31910160405180910390a3505050565b61117e848484610e66565b61118a848484846113e3565b610ac65760405162461bcd60e51b815260040161058090611ceb565b60606111b182610d3a565b600082815260066020526040812080546111ca90611ba9565b80601f01602080910402602001604051908101604052809291908181526020018280546111f690611ba9565b80156112435780601f1061121857610100808354040283529160200191611243565b820191906000526020600020905b81548152906001019060200180831161122657829003601f168201915b50505050509050600061126160408051602081019091526000815290565b90508051600003611273575092915050565b8151156112a557808260405160200161128d929190611d3d565b60405160208183030381529060405292505050919050565b610e5e846114e4565b60006001600160e01b031982166380ac58cd60e01b14806112df57506001600160e01b03198216635b5e139f60e01b145b8061044d57506301ffc9a760e01b6001600160e01b031983161461044d565b610865828260405180602001604052806000815250611558565b6000828152600260205260409020546001600160a01b03166113935760405162461bcd60e51b815260206004820152602e60248201527f45524337323155524953746f726167653a2055524920736574206f66206e6f6e60448201526d32bc34b9ba32b73a103a37b5b2b760911b6064820152608401610580565b60008281526006602052604090206113ab8282611dba565b506040518281527ff8e1a15aba9398e019f0b49df1a4fde98ee17ae345cb5f6b5e2c27f5033e8ce79060200160405180910390a15050565b60006001600160a01b0384163b156114d957604051630a85bd0160e11b81526001600160a01b0385169063150b7a0290611427903390899088908890600401611e7a565b6020604051808303816000875af1925050508015611462575060408051601f3d908101601f1916820190925261145f91810190611eb7565b60015b6114bf573d808015611490576040519150601f19603f3d011682016040523d82523d6000602084013e611495565b606091505b5080516000036114b75760405162461bcd60e51b815260040161058090611ceb565b805181602001fd5b6001600160e01b031916630a85bd0160e11b149050610e5e565b506001949350505050565b60606114ef82610d3a565b600061150660408051602081019091526000815290565b905060008151116115265760405180602001604052806000815250611551565b806115308461158b565b604051602001611541929190611d3d565b6040516020818303038152906040525b9392505050565b611562838361161e565b61156f60008484846113e3565b6106215760405162461bcd60e51b815260040161058090611ceb565b60606000611598836117a9565b600101905060008167ffffffffffffffff8111156115b8576115b8611a84565b6040519080825280601f01601f1916602001820160405280156115e2576020820181803683370190505b5090508181016020015b600019016f181899199a1a9b1b9c1cb0b131b232b360811b600a86061a8153600a85049450846115ec57509392505050565b6001600160a01b0382166116745760405162461bcd60e51b815260206004820181905260248201527f4552433732313a206d696e7420746f20746865207a65726f20616464726573736044820152606401610580565b6000818152600260205260409020546001600160a01b0316156116d95760405162461bcd60e51b815260206004820152601c60248201527f4552433732313a20746f6b656e20616c7265616479206d696e746564000000006044820152606401610580565b6000818152600260205260409020546001600160a01b03161561173e5760405162461bcd60e51b815260206004820152601c60248201527f4552433732313a20746f6b656e20616c7265616479206d696e746564000000006044820152606401610580565b6001600160a01b038216600081815260036020908152604080832080546001019055848352600290915280822080546001600160a01b0319168417905551839291907fddf252ad1be2c89b69c2b068fc378daa952ba7f163c4a11628f55a4df523b3ef908290a45050565b60008072184f03e93ff9f4daa797ed6e38ed64bf6a1f0160401b83106117e85772184f03e93ff9f4daa797ed6e38ed64bf6a1f0160401b830492506040015b6d04ee2d6d415b85acef81000000008310611814576d04ee2d6d415b85acef8100000000830492506020015b662386f26fc10000831061183257662386f26fc10000830492506010015b6305f5e100831061184a576305f5e100830492506008015b612710831061185e57612710830492506004015b60648310611870576064830492506002015b600a831061044d5760010192915050565b6001600160e01b031981168114610d1257600080fd5b6000602082840312156118a957600080fd5b813561155181611881565b60005b838110156118cf5781810151838201526020016118b7565b50506000910152565b600081518084526118f08160208601602086016118b4565b601f01601f19169290920160200192915050565b60208152600061155160208301846118d8565b60006020828403121561192957600080fd5b5035919050565b80356001600160a01b038116811461194757600080fd5b919050565b6000806040838503121561195f57600080fd5b61196883611930565b946020939093013593505050565b60006020828403121561198857600080fd5b61155182611930565b6000806000606084860312156119a657600080fd5b6119af84611930565b92506119bd60208501611930565b9150604084013590509250925092565b600080602083850312156119e057600080fd5b823567ffffffffffffffff808211156119f857600080fd5b818501915085601f830112611a0c57600080fd5b813581811115611a1b57600080fd5b866020828501011115611a2d57600080fd5b60209290920196919550909350505050565b8015158114610d1257600080fd5b60008060408385031215611a6057600080fd5b611a6983611930565b91506020830135611a7981611a3f565b809150509250929050565b634e487b7160e01b600052604160045260246000fd5b60008060008060808587031215611ab057600080fd5b611ab985611930565b9350611ac760208601611930565b925060408501359150606085013567ffffffffffffffff80821115611aeb57600080fd5b818701915087601f830112611aff57600080fd5b813581811115611b1157611b11611a84565b604051601f8201601f19908116603f01168101908382118183101715611b3957611b39611a84565b816040528281528a6020848701011115611b5257600080fd5b82602086016020830137600060208483010152809550505050505092959194509250565b60008060408385031215611b8957600080fd5b611b9283611930565b9150611ba060208401611930565b90509250929050565b600181811c90821680611bbd57607f821691505b602082108103611bdd57634e487b7160e01b600052602260045260246000fd5b50919050565b600060208284031215611bf557600080fd5b815161155181611a3f565b634e487b7160e01b600052601160045260246000fd5b8082018082111561044d5761044d611c00565b6020808252602d908201527f4552433732313a2063616c6c6572206973206e6f7420746f6b656e206f776e6560408201526c1c881bdc88185c1c1c9bdd9959609a1b606082015260800190565b600081611c8557611c85611c00565b506000190190565b600060208284031215611c9f57600080fd5b5051919050565b60208082526025908201527f4552433732313a207472616e736665722066726f6d20696e636f72726563742060408201526437bbb732b960d91b606082015260800190565b60208082526032908201527f4552433732313a207472616e7366657220746f206e6f6e20455243373231526560408201527131b2b4bb32b91034b6b83632b6b2b73a32b960711b606082015260800190565b60008351611d4f8184602088016118b4565b835190830190611d638183602088016118b4565b01949350505050565b601f82111561062157600081815260208120601f850160051c81016020861015611d935750805b601f850160051c820191505b81811015611db257828155600101611d9f565b505050505050565b815167ffffffffffffffff811115611dd457611dd4611a84565b611de881611de28454611ba9565b84611d6c565b602080601f831160018114611e1d5760008415611e055750858301515b600019600386901b1c1916600185901b178555611db2565b600085815260208120601f198616915b82811015611e4c57888601518255948401946001909101908401611e2d565b5085821015611e6a5787850151600019600388901b60f8161c191681555b5050505050600190811b01905550565b6001600160a01b0385811682528416602082015260408101839052608060608201819052600090611ead908301846118d8565b9695505050505050565b600060208284031215611ec957600080fd5b81516115518161188156fea2646970667358221220a7e258eeaba065f5daf62ffaecc1f5dafa4134cb86534cf95281200831187ba064736f6c63430008140033",
  "linkReferences": {},
  "deployedLinkReferences": {}
}